{
  "contractName": "Contract",
  "abi": [
    {
      "inputs": [
        {
          "internalType": "uint256",
          "name": "id",
          "type": "uint256"
        },
        {
          "internalType": "string",
          "name": "created_by",
          "type": "string"
        },
        {
          "internalType": "string",
          "name": "created_at",
          "type": "string"
        },
        {
          "internalType": "string",
          "name": "file_hash",
          "type": "string"
        },
        {
          "internalType": "string",
          "name": "status",
          "type": "string"
        }
      ],
      "name": "createCase",
      "outputs": [],
      "stateMutability": "nonpayable",
      "type": "function"
    },
    {
      "inputs": [
        {
          "internalType": "uint256",
          "name": "id",
          "type": "uint256"
        }
      ],
      "name": "getCase",
      "outputs": [
        {
          "internalType": "string",
          "name": "created_by",
          "type": "string"
        },
        {
          "internalType": "string",
          "name": "created_at",
          "type": "string"
        },
        {
          "internalType": "string",
          "name": "file_hash",
          "type": "string"
        },
        {
          "internalType": "string",
          "name": "status",
          "type": "string"
        }
      ],
      "stateMutability": "view",
      "type": "function",
      "constant": true
    },
    {
      "inputs": [],
      "name": "getLastCaseIndex",
      "outputs": [
        {
          "internalType": "uint256",
          "name": "index",
          "type": "uint256"
        }
      ],
      "stateMutability": "view",
      "type": "function",
      "constant": true
    },
    {
      "inputs": [
        {
          "internalType": "uint256",
          "name": "id",
          "type": "uint256"
        },
        {
          "internalType": "string",
          "name": "updated_by",
          "type": "string"
        },
        {
          "internalType": "string",
          "name": "updated_at",
          "type": "string"
        },
        {
          "internalType": "string",
          "name": "description",
          "type": "string"
        },
        {
          "internalType": "uint256",
          "name": "vote_app",
          "type": "uint256"
        },
        {
          "internalType": "uint256",
          "name": "vote_din",
          "type": "uint256"
        },
        {
          "internalType": "uint256",
          "name": "vote_count",
          "type": "uint256"
        }
      ],
      "name": "setNewDescriptor",
      "outputs": [],
      "stateMutability": "nonpayable",
      "type": "function"
    },
    {
      "inputs": [
        {
          "internalType": "uint256",
          "name": "id",
          "type": "uint256"
        },
        {
          "internalType": "string",
          "name": "updated_by",
          "type": "string"
        },
        {
          "internalType": "string",
          "name": "updated_at",
          "type": "string"
        },
        {
          "internalType": "string",
          "name": "description",
          "type": "string"
        },
        {
          "internalType": "uint256",
          "name": "vote_app",
          "type": "uint256"
        },
        {
          "internalType": "uint256",
          "name": "vote_din",
          "type": "uint256"
        },
        {
          "internalType": "uint256",
          "name": "vote_count",
          "type": "uint256"
        }
      ],
      "name": "setoldDescriptor",
      "outputs": [],
      "stateMutability": "nonpayable",
      "type": "function"
    },
    {
      "inputs": [
        {
          "internalType": "uint256",
          "name": "id",
          "type": "uint256"
        }
      ],
      "name": "getLastDesc",
      "outputs": [
        {
          "components": [
            {
              "internalType": "string",
              "name": "updated_by",
              "type": "string"
            },
            {
              "internalType": "string",
              "name": "updated_at",
              "type": "string"
            },
            {
              "internalType": "string",
              "name": "description",
              "type": "string"
            },
            {
              "internalType": "uint256",
              "name": "vote_app",
              "type": "uint256"
            },
            {
              "internalType": "uint256",
              "name": "vote_din",
              "type": "uint256"
            },
            {
              "internalType": "uint256",
              "name": "vote_count",
              "type": "uint256"
            }
          ],
          "internalType": "struct Contract.Desc",
          "name": "",
          "type": "tuple"
        }
      ],
      "stateMutability": "view",
      "type": "function",
      "constant": true
    },
    {
      "inputs": [
        {
          "internalType": "uint256",
          "name": "id",
          "type": "uint256"
        }
      ],
      "name": "getLastDescIndex",
      "outputs": [
        {
          "internalType": "uint256",
          "name": "index",
          "type": "uint256"
        }
      ],
      "stateMutability": "view",
      "type": "function",
      "constant": true
    },
    {
      "inputs": [
        {
          "internalType": "uint256",
          "name": "id",
          "type": "uint256"
        },
        {
          "internalType": "uint256",
          "name": "x",
          "type": "uint256"
        }
      ],
      "name": "getDesc",
      "outputs": [
        {
          "components": [
            {
              "internalType": "string",
              "name": "updated_by",
              "type": "string"
            },
            {
              "internalType": "string",
              "name": "updated_at",
              "type": "string"
            },
            {
              "internalType": "string",
              "name": "description",
              "type": "string"
            },
            {
              "internalType": "uint256",
              "name": "vote_app",
              "type": "uint256"
            },
            {
              "internalType": "uint256",
              "name": "vote_din",
              "type": "uint256"
            },
            {
              "internalType": "uint256",
              "name": "vote_count",
              "type": "uint256"
            }
          ],
          "internalType": "struct Contract.Desc",
          "name": "",
          "type": "tuple"
        }
      ],
      "stateMutability": "view",
      "type": "function",
      "constant": true
    },
    {
      "inputs": [
        {
          "internalType": "uint256",
          "name": "id",
          "type": "uint256"
        },
        {
          "internalType": "string",
          "name": "status",
          "type": "string"
        }
      ],
      "name": "setStatus",
      "outputs": [],
      "stateMutability": "nonpayable",
      "type": "function"
    },
    {
      "inputs": [
        {
          "internalType": "uint256",
          "name": "id",
          "type": "uint256"
        }
      ],
      "name": "approve",
      "outputs": [],
      "stateMutability": "nonpayable",
      "type": "function"
    },
    {
      "inputs": [
        {
          "internalType": "uint256",
          "name": "id",
          "type": "uint256"
        }
      ],
      "name": "denie",
      "outputs": [],
      "stateMutability": "nonpayable",
      "type": "function"
    }
  ],
  "bytecode": "0x608060405234801561001057600080fd5b50611811806100206000396000f3fe608060405234801561001057600080fd5b50600436106100a95760003560e01c8063b759f95411610071578063b759f95414610153578063c3ccdedb1461016f578063cdad64be1461019f578063da22b16e146101cf578063e5fb6098146101eb578063f60c3ed41461021b576100a9565b8063096e8210146100ae578063205b5069146100ca57806376917df9146100e85780639e212ad214610104578063a91a108014610120575b600080fd5b6100c860048036038101906100c391906111c0565b610237565b005b6100d26102d6565b6040516100df91906112cb565b60405180910390f35b61010260048036038101906100fd91906112e6565b610332565b005b61011e60048036038101906101199190611346565b61035c565b005b61013a60048036038101906101359190611449565b61050b565b60405161014a949392919061150f565b60405180910390f35b61016d60048036038101906101689190611449565b6107a4565b005b61018960048036038101906101849190611449565b6108a0565b6040516101969190611660565b60405180910390f35b6101b960048036038101906101b49190611449565b610b1f565b6040516101c691906112cb565b60405180910390f35b6101e960048036038101906101e49190611346565b610b91565b005b61020560048036038101906102009190611682565b610d31565b6040516102129190611660565b60405180910390f35b61023560048036038101906102309190611449565b610f46565b005b87876000808c8152602001908152602001600020600001919061025b929190611042565b5085856000808c81526020019081526020016000206001019190610280929190611042565b5083836000808c815260200190815260200160002060020191906102a5929190611042565b5081816000808c815260200190815260200160002060040191906102ca929190611042565b50505050505050505050565b600080600090505b6103e8811461032d5760008060008381526020019081526020016000206001018054610309906116f1565b905003610319578091505061032f565b6001816103269190611751565b90506102de565b505b90565b81816000808681526020019081526020016000206004019190610356929190611042565b50505050565b60005b6103e881146103ba5760008060008d81526020019081526020016000206003016000838152602001908152602001600020600001805461039e906116f1565b905003156103ba576001816103b39190611751565b905061035f565b6001816103c791906117a7565b905089896000808e815260200190815260200160002060030160008481526020019081526020016000206000019190610401929190611042565b5087876000808e81526020019081526020016000206003016000848152602001908152602001600020600101919061043a929190611042565b5085856000808e815260200190815260200160002060030160008481526020019081526020016000206002019190610473929190611042565b50836000808d8152602001908152602001600020600301600083815260200190815260200160002060030181905550826000808d8152602001908152602001600020600301600083815260200190815260200160002060040181905550816000808d81526020019081526020016000206003016000838152602001908152602001600020600501819055505050505050505050505050565b606080606080600080868152602001908152602001600020600001600080878152602001908152602001600020600101600080888152602001908152602001600020600201600080898152602001908152602001600020600401838054610571906116f1565b80601f016020809104026020016040519081016040528092919081815260200182805461059d906116f1565b80156105ea5780601f106105bf576101008083540402835291602001916105ea565b820191906000526020600020905b8154815290600101906020018083116105cd57829003601f168201915b505050505093508280546105fd906116f1565b80601f0160208091040260200160405190810160405280929190818152602001828054610629906116f1565b80156106765780601f1061064b57610100808354040283529160200191610676565b820191906000526020600020905b81548152906001019060200180831161065957829003601f168201915b50505050509250818054610689906116f1565b80601f01602080910402602001604051908101604052809291908181526020018280546106b5906116f1565b80156107025780601f106106d757610100808354040283529160200191610702565b820191906000526020600020905b8154815290600101906020018083116106e557829003601f168201915b50505050509150808054610715906116f1565b80601f0160208091040260200160405190810160405280929190818152602001828054610741906116f1565b801561078e5780601f106107635761010080835404028352916020019161078e565b820191906000526020600020905b81548152906001019060200180831161077157829003601f168201915b5050505050905093509350935093509193509193565b60005b6103e88114610802576000806000848152602001908152602001600020600301600083815260200190815260200160002060000180546107e6906116f1565b90500315610802576001816107fb9190611751565b90506107a7565b6001600080848152602001908152602001600020600301600060018461082891906117a7565b815260200190815260200160002060030160008282546108489190611751565b925050819055506001600080848152602001908152602001600020600301600060018461087591906117a7565b815260200190815260200160002060050160008282546108959190611751565b925050819055505050565b6108a86110c8565b60005b6103e88114610906576000806000858152602001908152602001600020600301600083815260200190815260200160002060000180546108ea906116f1565b90500315610906576001816108ff9190611751565b90506108ab565b600080848152602001908152602001600020600301600060018361092a91906117a7565b81526020019081526020016000206040518060c0016040529081600082018054610953906116f1565b80601f016020809104026020016040519081016040528092919081815260200182805461097f906116f1565b80156109cc5780601f106109a1576101008083540402835291602001916109cc565b820191906000526020600020905b8154815290600101906020018083116109af57829003601f168201915b505050505081526020016001820180546109e5906116f1565b80601f0160208091040260200160405190810160405280929190818152602001828054610a11906116f1565b8015610a5e5780601f10610a3357610100808354040283529160200191610a5e565b820191906000526020600020905b815481529060010190602001808311610a4157829003601f168201915b50505050508152602001600282018054610a77906116f1565b80601f0160208091040260200160405190810160405280929190818152602001828054610aa3906116f1565b8015610af05780601f10610ac557610100808354040283529160200191610af0565b820191906000526020600020905b815481529060010190602001808311610ad357829003601f168201915b505050505081526020016003820154815260200160048201548152602001600582015481525050915050919050565b600080600090505b6103e88114610b8a57600080600085815260200190815260200160002060030160008381526020019081526020016000206000018054610b66906116f1565b905003610b765780915050610b8c565b600181610b839190611751565b9050610b27565b505b919050565b60005b6103e88114610bef5760008060008d815260200190815260200160002060030160008381526020019081526020016000206000018054610bd3906116f1565b90500315610bef57600181610be89190611751565b9050610b94565b89896000808e815260200190815260200160002060030160008481526020019081526020016000206000019190610c27929190611042565b5087876000808e815260200190815260200160002060030160008481526020019081526020016000206001019190610c60929190611042565b5085856000808e815260200190815260200160002060030160008481526020019081526020016000206002019190610c99929190611042565b50836000808d8152602001908152602001600020600301600083815260200190815260200160002060030181905550826000808d8152602001908152602001600020600301600083815260200190815260200160002060040181905550816000808d81526020019081526020016000206003016000838152602001908152602001600020600501819055505050505050505050505050565b610d396110c8565b60008084815260200190815260200160002060030160008381526020019081526020016000206040518060c0016040529081600082018054610d7a906116f1565b80601f0160208091040260200160405190810160405280929190818152602001828054610da6906116f1565b8015610df35780601f10610dc857610100808354040283529160200191610df3565b820191906000526020600020905b815481529060010190602001808311610dd657829003601f168201915b50505050508152602001600182018054610e0c906116f1565b80601f0160208091040260200160405190810160405280929190818152602001828054610e38906116f1565b8015610e855780601f10610e5a57610100808354040283529160200191610e85565b820191906000526020600020905b815481529060010190602001808311610e6857829003601f168201915b50505050508152602001600282018054610e9e906116f1565b80601f0160208091040260200160405190810160405280929190818152602001828054610eca906116f1565b8015610f175780601f10610eec57610100808354040283529160200191610f17565b820191906000526020600020905b815481529060010190602001808311610efa57829003601f168201915b505050505081526020016003820154815260200160048201548152602001600582015481525050905092915050565b60005b6103e88114610fa457600080600084815260200190815260200160002060030160008381526020019081526020016000206000018054610f88906116f1565b90500315610fa457600181610f9d9190611751565b9050610f49565b60016000808481526020019081526020016000206003016000600184610fca91906117a7565b81526020019081526020016000206004016000828254610fea9190611751565b925050819055506001600080848152602001908152602001600020600301600060018461101791906117a7565b815260200190815260200160002060050160008282546110379190611751565b925050819055505050565b82805461104e906116f1565b90600052602060002090601f01602090048101928261107057600085556110b7565b82601f1061108957803560ff19168380011785556110b7565b828001600101855582156110b7579182015b828111156110b657823582559160200191906001019061109b565b5b5090506110c491906110fe565b5090565b6040518060c001604052806060815260200160608152602001606081526020016000815260200160008152602001600081525090565b5b808211156111175760008160009055506001016110ff565b5090565b600080fd5b600080fd5b6000819050919050565b61113881611125565b811461114357600080fd5b50565b6000813590506111558161112f565b92915050565b600080fd5b600080fd5b600080fd5b60008083601f8401126111805761117f61115b565b5b8235905067ffffffffffffffff81111561119d5761119c611160565b5b6020830191508360018202830111156111b9576111b8611165565b5b9250929050565b600080600080600080600080600060a08a8c0312156111e2576111e161111b565b5b60006111f08c828d01611146565b99505060208a013567ffffffffffffffff81111561121157611210611120565b5b61121d8c828d0161116a565b985098505060408a013567ffffffffffffffff8111156112405761123f611120565b5b61124c8c828d0161116a565b965096505060608a013567ffffffffffffffff81111561126f5761126e611120565b5b61127b8c828d0161116a565b945094505060808a013567ffffffffffffffff81111561129e5761129d611120565b5b6112aa8c828d0161116a565b92509250509295985092959850929598565b6112c581611125565b82525050565b60006020820190506112e060008301846112bc565b92915050565b6000806000604084860312156112ff576112fe61111b565b5b600061130d86828701611146565b935050602084013567ffffffffffffffff81111561132e5761132d611120565b5b61133a8682870161116a565b92509250509250925092565b60008060008060008060008060008060e08b8d0312156113695761136861111b565b5b60006113778d828e01611146565b9a505060208b013567ffffffffffffffff81111561139857611397611120565b5b6113a48d828e0161116a565b995099505060408b013567ffffffffffffffff8111156113c7576113c6611120565b5b6113d38d828e0161116a565b975097505060608b013567ffffffffffffffff8111156113f6576113f5611120565b5b6114028d828e0161116a565b955095505060806114158d828e01611146565b93505060a06114268d828e01611146565b92505060c06114378d828e01611146565b9150509295989b9194979a5092959850565b60006020828403121561145f5761145e61111b565b5b600061146d84828501611146565b91505092915050565b600081519050919050565b600082825260208201905092915050565b60005b838110156114b0578082015181840152602081019050611495565b838111156114bf576000848401525b50505050565b6000601f19601f8301169050919050565b60006114e182611476565b6114eb8185611481565b93506114fb818560208601611492565b611504816114c5565b840191505092915050565b6000608082019050818103600083015261152981876114d6565b9050818103602083015261153d81866114d6565b9050818103604083015261155181856114d6565b9050818103606083015261156581846114d6565b905095945050505050565b600082825260208201905092915050565b600061158c82611476565b6115968185611570565b93506115a6818560208601611492565b6115af816114c5565b840191505092915050565b6115c381611125565b82525050565b600060c08301600083015184820360008601526115e68282611581565b915050602083015184820360208601526116008282611581565b9150506040830151848203604086015261161a8282611581565b915050606083015161162f60608601826115ba565b50608083015161164260808601826115ba565b5060a083015161165560a08601826115ba565b508091505092915050565b6000602082019050818103600083015261167a81846115c9565b905092915050565b600080604083850312156116995761169861111b565b5b60006116a785828601611146565b92505060206116b885828601611146565b9150509250929050565b7f4e487b7100000000000000000000000000000000000000000000000000000000600052602260045260246000fd5b6000600282049050600182168061170957607f821691505b60208210810361171c5761171b6116c2565b5b50919050565b7f4e487b7100000000000000000000000000000000000000000000000000000000600052601160045260246000fd5b600061175c82611125565b915061176783611125565b9250827fffffffffffffffffffffffffffffffffffffffffffffffffffffffffffffffff0382111561179c5761179b611722565b5b828201905092915050565b60006117b282611125565b91506117bd83611125565b9250828210156117d0576117cf611722565b5b82820390509291505056fea2646970667358221220984afc34ac1d205fc663113754beb705708ddd38b167a607c23b9f3a49c6e24a64736f6c634300080e0033",
  "immutableReferences": {},
  "source": "pragma solidity ^0.8.0;\n\ncontract Contract{\n\n    struct Desc {\n        string updated_by;\n        string updated_at;\n        string description;\n        uint vote_app;\n        uint vote_din;\n        uint vote_count;\n    }\n\n    struct Case {\n        string created_by;\n        string created_at;\n        string file_hash;\n        mapping(uint256=>Desc) desc;\n        string status;\n    }\n\n    mapping(uint256=>Case) internal cases;\n\n    function createCase(uint256 id, string calldata created_by,  string calldata created_at,  string calldata file_hash, string calldata status) external\n    {\n        cases[id].created_by = created_by;\n        cases[id].created_at = created_at;\n        cases[id].file_hash = file_hash;\n        cases[id].status = status;\n    }\n\n\n    function getCase(uint256 id) external view returns (string memory created_by,\n                                                        string memory created_at,\n                                                        string memory file_hash,\n                                                        string memory status)\n    {\n        return (    cases[id].created_by,\n                    cases[id].created_at,\n                    cases[id].file_hash,\n                    cases[id].status);\n    }\n\n    function getLastCaseIndex() external view returns (uint256 index)\n    {\n        uint x;\n        for (x = 0; x != 1000; x += 1)\n        {\n            if(bytes(cases[x].created_at).length  == 0)\n                return (x);\n        }\n    }\n\n\n\n    function setNewDescriptor(uint256 id, string calldata updated_by,  string calldata updated_at,  string calldata description,\n                              uint256 vote_app,uint256 vote_din, uint256 vote_count) external\n    {\n        uint x;\n        for (x = 0; x != 1000; x += 1)\n        {\n            if(bytes(cases[id].desc[x].updated_by).length  == 0)\n                break;\n        }\n        cases[id].desc[x].updated_by = updated_by;\n        cases[id].desc[x].updated_at = updated_at;\n        cases[id].desc[x].description = description;\n        cases[id].desc[x].vote_app = vote_app;\n        cases[id].desc[x].vote_din = vote_din;\n        cases[id].desc[x].vote_count = vote_count;\n\n    }\n\n    function setoldDescriptor(uint256 id, string calldata updated_by,  string calldata updated_at,  string calldata description,\n                              uint256 vote_app,uint256 vote_din, uint256 vote_count) external\n    {\n        uint x;\n        for (x = 0; x != 1000; x += 1)\n        {\n            if(bytes(cases[id].desc[x].updated_by).length  == 0)\n                break;\n        }\n        x -= 1;\n        cases[id].desc[x].updated_by = updated_by;\n        cases[id].desc[x].updated_at = updated_at;\n        cases[id].desc[x].description = description;\n        cases[id].desc[x].vote_app = vote_app;\n        cases[id].desc[x].vote_din = vote_din;\n        cases[id].desc[x].vote_count = vote_count;\n\n    }\n\n    function getLastDesc(uint256 id) external view returns (Desc memory)\n    {\n        uint x;\n        for (x = 0; x != 1000; x += 1)\n        {\n            if(bytes(cases[id].desc[x].updated_by).length  == 0)\n                break;\n        }\n        return (cases[id].desc[x-1]);\n    }\n\n    function getLastDescIndex(uint256 id) external view returns (uint256 index)\n    {\n        uint x;\n        for (x = 0; x != 1000; x += 1)\n        {\n            if(bytes(cases[id].desc[x].updated_by).length  == 0)\n                return (x);\n        }\n    }\n\n    function getDesc(uint256 id, uint256 x) external view returns (Desc memory)\n    {\n        return (cases[id].desc[x]);\n    }\n\n    function setStatus(uint256 id, string calldata status) external\n    {\n        cases[id].status = status;\n    }\n\n    function approve(uint256 id) external\n    {\n        uint x;\n        for (x = 0; x != 1000; x += 1)\n        {\n            if(bytes(cases[id].desc[x].updated_by).length  == 0)\n                break;\n        }\n\n        cases[id].desc[x-1].vote_app += 1;\n        cases[id].desc[x-1].vote_count += 1;\n    }\n\n    function denie(uint256 id) external\n    {\n        uint x;\n        for (x = 0; x != 1000; x += 1)\n        {\n            if(bytes(cases[id].desc[x].updated_by).length  == 0)\n                break;\n        }\n\n        cases[id].desc[x-1].vote_din += 1;\n        cases[id].desc[x-1].vote_count += 1;\n    }\n}",
  "sourcePath": "/home/sabloom/Git/pfe-syrine/ETH_Contract/contracts/contract.sol",
  "compiler": {
    "name": "solc",
    "version": "0.8.14+commit.80d49f37.Emscripten.clang"
  },
  "schemaVersion": "3.4.7",
  "updatedAt": "2022-06-03T06:48:06.611Z",
  "networkType": "ethereum",
  "devdoc": {
    "kind": "dev",
    "methods": {},
    "version": 1
  },
  "userdoc": {
    "kind": "user",
    "methods": {},
    "version": 1
  }
}